{
  "contractName": "Blog",
  "abi": [
    {
      "constant": true,
      "inputs": [],
      "name": "owner",
      "outputs": [
        {
          "name": "",
          "type": "address"
        }
      ],
      "payable": false,
      "stateMutability": "view",
      "type": "function"
    },
    {
      "constant": true,
      "inputs": [],
      "name": "creationTime",
      "outputs": [
        {
          "name": "",
          "type": "uint256"
        }
      ],
      "payable": false,
      "stateMutability": "view",
      "type": "function"
    },
    {
      "anonymous": false,
      "inputs": [
        {
          "indexed": true,
          "name": "publisher",
          "type": "address"
        },
        {
          "indexed": false,
          "name": "publicationTime",
          "type": "uint256"
        },
        {
          "indexed": false,
          "name": "ipfsHash",
          "type": "string"
        }
      ],
      "name": "Publish",
      "type": "event"
    },
    {
      "anonymous": false,
      "inputs": [
        {
          "indexed": false,
          "name": "msg",
          "type": "string"
        }
      ],
      "name": "L",
      "type": "event"
    },
    {
      "constant": false,
      "inputs": [
        {
          "name": "_ipfsHash",
          "type": "string"
        }
      ],
      "name": "publishContent",
      "outputs": [],
      "payable": false,
      "stateMutability": "nonpayable",
      "type": "function"
    }
  ],
  "bytecode": "0x6080604052336000806101000a81548173ffffffffffffffffffffffffffffffffffffffff021916908373ffffffffffffffffffffffffffffffffffffffff1602179055504260015534801561005457600080fd5b506102bb806100646000396000f3fe608060405260043610610057576000357c0100000000000000000000000000000000000000000000000000000000900463ffffffff1680633dccafc41461005c5780638da5cb5b14610124578063d8270dce1461017b575b600080fd5b34801561006857600080fd5b506101226004803603602081101561007f57600080fd5b810190808035906020019064010000000081111561009c57600080fd5b8201836020820111156100ae57600080fd5b803590602001918460018302840111640100000000831117156100d057600080fd5b91908080601f016020809104026020016040519081016040528093929190818152602001838380828437600081840152601f19601f8201169050808301925050505050505091929192905050506101a6565b005b34801561013057600080fd5b50610139610264565b604051808273ffffffffffffffffffffffffffffffffffffffff1673ffffffffffffffffffffffffffffffffffffffff16815260200191505060405180910390f35b34801561018757600080fd5b50610190610289565b6040518082815260200191505060405180910390f35b3373ffffffffffffffffffffffffffffffffffffffff167f791fa8d673903c2651200b3e8ea256e658b186d979a43fe89d51cc44325a7c2942836040518083815260200180602001828103825283818151815260200191508051906020019080838360005b8381101561022657808201518184015260208101905061020b565b50505050905090810190601f1680156102535780820380516001836020036101000a031916815260200191505b50935050505060405180910390a250565b6000809054906101000a900473ffffffffffffffffffffffffffffffffffffffff1681565b6001548156fea165627a7a72305820174e8ebd5766904e3c5179c8bfc306f71219e27cb1f072324c653767cf72119e0029",
  "source": "pragma solidity >=0.4.21 <0.6.0;\n\ncontract Blog {\n\n  // public details of contract, owner and now assigned\n  // at contract creation\n  address public owner = msg.sender;\n  uint public creationTime = now;\n\n  // when new content is published an event will be logged\n  event Publish(\n    address indexed publisher,\n    uint publicationTime,\n    string ipfsHash\n  );\n\n  event L(\n    string msg\n  );\n\n  // will only allow the `owner` to call the function\n  modifier restricted() {\n    if (msg.sender == owner) _;\n  }\n\n  // when we want to publish new content\n  function publishContent(string memory _ipfsHash) public {\n    // publishing is simply emitting the Publish event\n    // w/ ref to ipfs resource\n    emit Publish(msg.sender, now, _ipfsHash);\n  }\n\n}\n",
  "sourcePath": "/Users/rranshous/coding/blog_contract/contracts/Blog.sol",
  "compiler": {
    "name": "solc",
    "version": "0.5.0+commit.1d4f565a.Emscripten.clang"
  },
  "schemaVersion": "3.0.0",
  "updatedAt": "2018-12-19T19:34:48.054Z",
  "devdoc": {
    "methods": {}
  },
  "userdoc": {
    "methods": {}
  }
}